:02000000F028E6
:100008000B1914200B18092009008B1127009312D3
:1000180020005A3095000230F4000B118B160800AE
:100028000B115A309500F40B080020008C1A761634
:100038008B1508000530F000F00B20280800D1309F
:10004800F0004F30F1000230F200F00B2C28F10BD9
:100058002E28F20B292808003E30F0009D30F100D0
:10006800F00B3728F10B3428392800000800BE307F
:10007800F000DB30F100F00B4228F10B3F28442858
:10008800000008003630F000E030F1000130F200E6
:10009800F00B4F28F10B5128F20B4C2800000800F8
:1000A8006D30F000BF30F1000230F200F00B5D2837
:1000B800F10B5F28F20B5A280800A330F0009E309D
:1000C800F1000330F200F00B6A28F10B6C28F20BF8
:1000D80067286E280800DA30F0007D30F10004301F
:1000E800F200F00B7828F10B7A28F20B7528000043
:1000F80008001130F0005D30F1000530F200F00B1F
:100108008628F10B8828F20B83288A288B28080078
:100118007E30F0001B30F1000730F200F00B95281C
:10012800F10B9728F20B922899289A2800000800CA
:100138002330F000B930F1000930F200F00BA528A7
:10014800F10BA728F20BA228A9280800B530F00067
:100158009930F1002C30F200F00BB328F10BB528E0
:10016800F20BB028B728B82808006C30F0003230FD
:10017800F1005830F200F00BC228F10BC428F20B42
:10018800BF28C62800000800CE20D620DA20E620A6
:10019800FD2008002100783099001A1ED1281A1C69
:1001A800D3280800210007309500080023008C019F
:1001B8008E0121008C018C1621008E0122008C01F9
:1001C8008E01080027009301911621009513240041
:1001D8008C168B158B170800C820F601761EF2289E
:1001E800761222000E1DFA280E11F22804300E1580
:1001F800F22822000E159C200E1154200E159C206A
:040208000E110800CB
:020000040001F9
:04000E00E43FFF1DAF
:00000001FF
