:02000000FC28DA
:100008000900240028309500240080309400240042
:1000180080309200FA01AF200800FB00240095010F
:100028009601970194019417063095041614171534
:100038007B089200923520009211911121009215AF
:100048009115240095160B178B17FA01AF2008009D
:1000580023000E108E1021000E148E140800F400D8
:10006800240028307A05031D47288C1B3F28A02030
:10007800161416183D288C137B0889350910910031
:10008800A020161B9A2874089100A020161B9A28F5
:100098007A1D5028FA010134FA1C5428FA01013457
:1000A800FA1D5928FA117A1A5E2824001615A0207C
:1000B800FA0101348C177A129614A020FA0101343F
:1000C8002400C0307A05031D79288C1F6C286F28FE
:1000D800A0201614A0208C137B08893509149100E0
:1000E800A020161F7928FA0100349615A0201108BF
:1000F800F40060307A05031983289612842896162E
:100108001616161A852860307A0503198D28FA0103
:100118000134FA1F96287A1E96288C179614A02068
:10012800FA0101341615A020FA010134240016152D
:10013800A0200000FA01003403086039840024007C
:100148001419A4281F301605031DA6289F308305FF
:10015800040883060800FA210800FB0008002000B4
:10016800911DC3282400141DBC2874089100C328BD
:10017800941EC2281108F4007A14C328910820009C
:10018800921DCA2824001108200092112000911104
:100198007A180800240015160800D720E020E4206B
:1001A8002C200520080021007830990008001A1E2C
:1001B800DB281A1CDD2808002100073095000800FC
:1001C80023008C018E0121008C0122008C0121006A
:1001D80003308E0022008E0108002400283095008C
:1001E80024008030940024008030920054210800BC
:1001F800D1200130F4006030FB0002305C21FA218C
:10020800FA2174085C21FA1474083320003E03199B
:100218004729DB2174085C217A1574083320003ED5
:1002280003194729DB2174085C21FA157A1674082A
:100238003320003E03194729DB217221FA21752159
:10024800DB21FA166420003E0319472974085C2153
:10025800DB217221FA217521DB217A176420003E07
:100268000319472974085C21DB217221FA217521C1
:10027800DB21FA177A166420003E0319472974080F
:100288005C21DB214A290A305C215129063074029D
:1002980003184F2951290130F400FA21FA210529C0
:1002A800FA210800F3006821A421F30B572908005C
:1002B800F3006D218E21F30B5D290800F3006821FE
:1002C800DB21F30B6329080022008C16A4218C1271
:1002D800080022008C168E218C12080022008C1631
:1002E800080022008C1208007221B2217521080032
:1002F8000530F000F00B7E290800D130F0004F30B7
:10030800F1000230F200F00B8A29F10B8C29F20B74
:10031800872908003E30F0009D30F100F00B952948
:10032800F10B9229972900000800BE30F000DB305D
:10033800F100F00BA029F10B9D29A229000008006B
:100348003630F000E030F1000130F200F00BAD295A
:10035800F10BAF29F20BAA29000008006D30F0005C
:10036800BF30F1000230F200F00BBB29F10BBD29C0
:10037800F20BB8290800A330F0009E30F1000330DA
:10038800F200F00BC829F10BCA29F20BC529CC29B8
:100398000800DA30F0007D30F1000430F200F00B94
:1003A800D629F10BD829F20BD32900000800113007
:1003B800F0005D30F1000530F200F00BE429F10B9C
:1003C800E629F20BE129E829E92908007E30F00046
:1003D8001B30F1000730F200F00BF329F10BF5297F
:1003E800F20BF029F729F829000008002330F00063
:1003F800B930F1000930F200F00B032AF10B052A9D
:10040800F20B002A072A0800B530F0009930F100F5
:100418002C30F200F00B112AF10B132AF20B0E2AE2
:10042800152A162A08006C30F0003230F1005830D6
:10043800F200F00B202AF10B222AF20B1D2A242AA3
:1004480000000800F500F50DF50DF50DF50DF50D9D
:100458000330F800F50D0318332A4622352A4B22BB
:10046800352AF80B2E2A0800F5000830F800F50D9B
:100478000318402A4622422A4B22422ADB21F80B43
:100488003B2A08007221A4217521B221080072219B
:10049800FA217521B22108005422A421542208000F
:1004A8007221A42175210800F7135B2AF717F600BB
:1004B8007718662AF718682A7719642A662A0800BE
:1004C8007C21692A7221692A7C21F71F6D2A8E21D5
:1004D8006E2AFA217718772AF718792A7719752A50
:1004E800772A7C217A2A75217A2A7C21F71F7E2A8D
:1004F8008E217F2AFA21F60B5C2AF71F852A8E2186
:06050800862AFA2108001A
:020000040001F9
:04000E00E43FFF1DAF
:00000001FF
