:0200000098293D
:10000800200091190928921D0900B920090024002F
:10001800283095002400803094002400803092001D
:10002800F501B5200800FA00240095019601970112
:100038009401941706309504161417157A0892003F
:1000480092352000921191112100921591152400EA
:1000580095160B178B17F501B520080023000E1015
:100068008E1021000E148E140800F300240028308E
:100078007505031D4D288C1B4528A6201614161837
:1000880043288C137A08893509109100A620161B7D
:10009800A02873089100A620161BA028751D5628B5
:1000A800F5010134F51C5A28F5010134F51D5F28C6
:1000B800F511751A642824001615A620F5010134D7
:1000C8008C1775129614A620F50101342400C0304F
:1000D8007505031D7F288C1F72287528A620161405
:1000E800A6208C137A08893509149100A620161FBA
:1000F8007F28F50100349615A6201108F30060301A
:1001080075050319892896128A2896161616161A3E
:100118008B286030750503199328F5010134F51F04
:100128009C28751E9C288C179614A620F50101346E
:100138001615A620F501013424001615A620000086
:10014800F501003403086039840024001419AA2832
:100158001F301605031DAC289F308305040883064D
:10016800080055210800FA0008002000911DC92840
:100178002400141DC22873089100C928941EC82899
:100188001108F3007514C92891082000921DD02881
:100198002400110820009211200091117518080000
:1001A8002400151608000530F000F00BD9280800C7
:1001B800D130F0004F30F1000230F200F00BE528AA
:1001C800F10BE728F20BE22808003E30F0009D30E2
:1001D800F100F00BF028F10BED28F22800000800E0
:1001E800BE30F000DB30F100F00BFB28F10BF828F3
:1001F800FD28000008003630F000E030F100013042
:10020800F200F00B0829F10B0A29F20B052900006E
:1002180008006D30F000BF30F1000230F200F00B42
:100228001629F10B1829F20B13290800A330F00046
:100238009E30F1000330F200F00B2329F10B252941
:10024800F20B202927290800DA30F0007D30F10070
:100258000430F200F00B3129F10B3329F20B2E296F
:10026800000008001130F0005D30F1000530F200A8
:10027800F00B3F29F10B4129F20B3C294329442972
:1002880008007E30F0001B30F1000730F200F00B60
:100298004E29F10B5029F20B4B2952295329000002
:1002A80008002330F000B930F1000930F200F00BFB
:1002B8005E29F10B6029F20B5B2962290800B53031
:1002C800F0009930F1002C30F200F00B6C29F10BA2
:1002D8006E29F20B69297029712908006C30F00029
:1002E8003230F1005830F200F00B7B29F10B7D29F8
:1002F800F20B78297F290000080087218F213220FE
:100308006030172008002100783099001A1E8A29C9
:100318001A1C8C29080023008C018E0121008C01F5
:100328008E0122008C1208008121F501751C9A2982
:1003380075107308A821F30AD2209A2922008C1676
:10034800080022008C120800FB00AE21E920FB0BFC
:0E035800A929080022008C16E9208C1208004A
:020000040001F9
:04000E00E43FFF1DAF
:00000001FF
